{
  "address": "0xc4bc2A4065Cb47d98eEfd3D087b1dbB11cC4B2F5",
  "abi": [
    {
      "inputs": [
        {
          "internalType": "uint256",
          "name": "_lockTime",
          "type": "uint256"
        },
        {
          "internalType": "address",
          "name": "dataFeedAddr",
          "type": "address"
        }
      ],
      "stateMutability": "nonpayable",
      "type": "constructor"
    },
    {
      "inputs": [],
      "name": "dataFeed",
      "outputs": [
        {
          "internalType": "contract AggregatorV3Interface",
          "name": "",
          "type": "address"
        }
      ],
      "stateMutability": "view",
      "type": "function"
    },
    {
      "inputs": [],
      "name": "fund",
      "outputs": [],
      "stateMutability": "payable",
      "type": "function"
    },
    {
      "inputs": [
        {
          "internalType": "address",
          "name": "",
          "type": "address"
        }
      ],
      "name": "funderToAmount",
      "outputs": [
        {
          "internalType": "uint256",
          "name": "",
          "type": "uint256"
        }
      ],
      "stateMutability": "view",
      "type": "function"
    },
    {
      "inputs": [],
      "name": "getChainlinkDataFeedLatestAnswer",
      "outputs": [
        {
          "internalType": "int256",
          "name": "",
          "type": "int256"
        }
      ],
      "stateMutability": "view",
      "type": "function"
    },
    {
      "inputs": [],
      "name": "getFund",
      "outputs": [],
      "stateMutability": "nonpayable",
      "type": "function"
    },
    {
      "inputs": [],
      "name": "getFundSuccess",
      "outputs": [
        {
          "internalType": "bool",
          "name": "",
          "type": "bool"
        }
      ],
      "stateMutability": "view",
      "type": "function"
    },
    {
      "inputs": [],
      "name": "owner",
      "outputs": [
        {
          "internalType": "address",
          "name": "",
          "type": "address"
        }
      ],
      "stateMutability": "view",
      "type": "function"
    },
    {
      "inputs": [],
      "name": "refund",
      "outputs": [],
      "stateMutability": "nonpayable",
      "type": "function"
    },
    {
      "inputs": [
        {
          "internalType": "address",
          "name": "_erc20Addr",
          "type": "address"
        }
      ],
      "name": "setErc20Addr",
      "outputs": [],
      "stateMutability": "nonpayable",
      "type": "function"
    },
    {
      "inputs": [
        {
          "internalType": "address",
          "name": "funder",
          "type": "address"
        },
        {
          "internalType": "uint256",
          "name": "amountToUpdate",
          "type": "uint256"
        }
      ],
      "name": "setFunderToAmount",
      "outputs": [],
      "stateMutability": "nonpayable",
      "type": "function"
    },
    {
      "inputs": [
        {
          "internalType": "address",
          "name": "newOwnser",
          "type": "address"
        }
      ],
      "name": "transferOwnership",
      "outputs": [],
      "stateMutability": "nonpayable",
      "type": "function"
    }
  ],
  "transactionHash": "0xbad3313e16117387000e68f1939222887d82d9b87f1bf98a225aec2b72524e62",
  "args": [
    180,
    "0x694AA1769357215DE4FAC081bf1f309aDC325306"
  ],
  "numDeployments": 1,
  "solcInputHash": "c5e8fe503076387cc63f7ff5c5e588cb",
  "bytecode": "0x6080604052671bc16d674ec800006002556000600660146101000a81548160ff02191690831515021790555034801561003757600080fd5b506040516113fc3803806113fc83398181016040528101906100599190610188565b806000806101000a81548173ffffffffffffffffffffffffffffffffffffffff021916908373ffffffffffffffffffffffffffffffffffffffff16021790555033600360006101000a81548173ffffffffffffffffffffffffffffffffffffffff021916908373ffffffffffffffffffffffffffffffffffffffff160217905550426004819055508160058190555050506101c8565b600080fd5b6000819050919050565b610107816100f4565b811461011257600080fd5b50565b600081519050610124816100fe565b92915050565b600073ffffffffffffffffffffffffffffffffffffffff82169050919050565b60006101558261012a565b9050919050565b6101658161014a565b811461017057600080fd5b50565b6000815190506101828161015c565b92915050565b6000806040838503121561019f5761019e6100ef565b5b60006101ad85828601610115565b92505060206101be85828601610173565b9150509250929050565b611225806101d76000396000f3fe60806040526004361061009c5760003560e01c80639e42ff90116100645780639e42ff9014610160578063b60d42881461018b578063bea4dfb514610195578063d39cf006146101c0578063da4658e0146101e9578063f2fde38b146102145761009c565b806313ffff01146100a15780634407e1e8146100ca578063590e1ae3146101075780638da5cb5b1461011e5780638edd6eb614610149575b600080fd5b3480156100ad57600080fd5b506100c860048036038101906100c39190610a7a565b61023d565b005b3480156100d657600080fd5b506100f160048036038101906100ec9190610a7a565b610311565b6040516100fe9190610ac0565b60405180910390f35b34801561011357600080fd5b5061011c610329565b005b34801561012a57600080fd5b506101336104c2565b6040516101409190610aea565b60405180910390f35b34801561015557600080fd5b5061015e6104e8565b005b34801561016c57600080fd5b50610175610681565b6040516101829190610b64565b60405180910390f35b6101936106a5565b005b3480156101a157600080fd5b506101aa610789565b6040516101b79190610b98565b60405180910390f35b3480156101cc57600080fd5b506101e760048036038101906101e29190610bdf565b610828565b005b3480156101f557600080fd5b506101fe610900565b60405161020b9190610c3a565b60405180910390f35b34801561022057600080fd5b5061023b60048036038101906102369190610a7a565b610913565b005b600360009054906101000a900473ffffffffffffffffffffffffffffffffffffffff1673ffffffffffffffffffffffffffffffffffffffff163373ffffffffffffffffffffffffffffffffffffffff16146102cd576040517f08c379a00000000000000000000000000000000000000000000000000000000081526004016102c490610cd8565b60405180910390fd5b80600660006101000a81548173ffffffffffffffffffffffffffffffffffffffff021916908373ffffffffffffffffffffffffffffffffffffffff16021790555050565b60016020528060005260406000206000915090505481565b6005546004546103399190610d27565b42101561037b576040517f08c379a000000000000000000000000000000000000000000000000000000000815260040161037290610da7565b60405180910390fd5b6753444835ec58000061038d476109e7565b106103cd576040517f08c379a00000000000000000000000000000000000000000000000000000000081526004016103c490610e13565b60405180910390fd5b60003373ffffffffffffffffffffffffffffffffffffffff16600160003373ffffffffffffffffffffffffffffffffffffffff1673ffffffffffffffffffffffffffffffffffffffff1681526020019081526020016000205460405161043290610e64565b60006040518083038185875af1925050503d806000811461046f576040519150601f19603f3d011682016040523d82523d6000602084013e610474565b606091505b5050809150506000600160003373ffffffffffffffffffffffffffffffffffffffff1673ffffffffffffffffffffffffffffffffffffffff1681526020019081526020016000208190555050565b600360009054906101000a900473ffffffffffffffffffffffffffffffffffffffff1681565b6753444835ec5800006104fa476109e7565b101561053b576040517f08c379a000000000000000000000000000000000000000000000000000000000815260040161053290610ec5565b60405180910390fd5b600360009054906101000a900473ffffffffffffffffffffffffffffffffffffffff1673ffffffffffffffffffffffffffffffffffffffff163373ffffffffffffffffffffffffffffffffffffffff16146105cb576040517f08c379a00000000000000000000000000000000000000000000000000000000081526004016105c290610cd8565b60405180910390fd5b6005546004546105db9190610d27565b42101561061d576040517f08c379a000000000000000000000000000000000000000000000000000000000815260040161061490610da7565b60405180910390fd5b3373ffffffffffffffffffffffffffffffffffffffff166108fc479081150290604051600060405180830381858888f19350505050158015610663573d6000803e3d6000fd5b506001600660146101000a81548160ff021916908315150217905550565b60008054906101000a900473ffffffffffffffffffffffffffffffffffffffff1681565b6002546106b1346109e7565b10156106f2576040517f08c379a00000000000000000000000000000000000000000000000000000000081526004016106e990610f31565b60405180910390fd5b6005546004546107029190610d27565b4210610743576040517f08c379a000000000000000000000000000000000000000000000000000000000815260040161073a90610f9d565b60405180910390fd5b34600160003373ffffffffffffffffffffffffffffffffffffffff1673ffffffffffffffffffffffffffffffffffffffff16815260200190815260200160002081905550565b60008060008054906101000a900473ffffffffffffffffffffffffffffffffffffffff1673ffffffffffffffffffffffffffffffffffffffff1663feaf968c6040518163ffffffff1660e01b815260040160a060405180830381865afa1580156107f7573d6000803e3d6000fd5b505050506040513d601f19601f8201168201806040525081019061081b9190611040565b5050509150508091505090565b600660009054906101000a900473ffffffffffffffffffffffffffffffffffffffff1673ffffffffffffffffffffffffffffffffffffffff163373ffffffffffffffffffffffffffffffffffffffff16146108b8576040517f08c379a00000000000000000000000000000000000000000000000000000000081526004016108af9061112d565b60405180910390fd5b80600160008473ffffffffffffffffffffffffffffffffffffffff1673ffffffffffffffffffffffffffffffffffffffff168152602001908152602001600020819055505050565b600660149054906101000a900460ff1681565b600360009054906101000a900473ffffffffffffffffffffffffffffffffffffffff1673ffffffffffffffffffffffffffffffffffffffff163373ffffffffffffffffffffffffffffffffffffffff16146109a3576040517f08c379a000000000000000000000000000000000000000000000000000000000815260040161099a90610cd8565b60405180910390fd5b80600360006101000a81548173ffffffffffffffffffffffffffffffffffffffff021916908373ffffffffffffffffffffffffffffffffffffffff16021790555050565b6000806109f2610789565b90506305f5e1008184610a05919061114d565b610a0f91906111be565b915050919050565b600080fd5b600073ffffffffffffffffffffffffffffffffffffffff82169050919050565b6000610a4782610a1c565b9050919050565b610a5781610a3c565b8114610a6257600080fd5b50565b600081359050610a7481610a4e565b92915050565b600060208284031215610a9057610a8f610a17565b5b6000610a9e84828501610a65565b91505092915050565b6000819050919050565b610aba81610aa7565b82525050565b6000602082019050610ad56000830184610ab1565b92915050565b610ae481610a3c565b82525050565b6000602082019050610aff6000830184610adb565b92915050565b6000819050919050565b6000610b2a610b25610b2084610a1c565b610b05565b610a1c565b9050919050565b6000610b3c82610b0f565b9050919050565b6000610b4e82610b31565b9050919050565b610b5e81610b43565b82525050565b6000602082019050610b796000830184610b55565b92915050565b6000819050919050565b610b9281610b7f565b82525050565b6000602082019050610bad6000830184610b89565b92915050565b610bbc81610aa7565b8114610bc757600080fd5b50565b600081359050610bd981610bb3565b92915050565b60008060408385031215610bf657610bf5610a17565b5b6000610c0485828601610a65565b9250506020610c1585828601610bca565b9150509250929050565b60008115159050919050565b610c3481610c1f565b82525050565b6000602082019050610c4f6000830184610c2b565b92915050565b600082825260208201905092915050565b7f746869732066756e6374696f6e2063616e206f6e6c792062652063616c6c656460008201527f206279206f776e65720000000000000000000000000000000000000000000000602082015250565b6000610cc2602983610c55565b9150610ccd82610c66565b604082019050919050565b60006020820190508181036000830152610cf181610cb5565b9050919050565b7f4e487b7100000000000000000000000000000000000000000000000000000000600052601160045260246000fd5b6000610d3282610aa7565b9150610d3d83610aa7565b9250828201905080821115610d5557610d54610cf8565b5b92915050565b7f77696e646f77206973206e6f7420636c6f736564000000000000000000000000600082015250565b6000610d91601483610c55565b9150610d9c82610d5b565b602082019050919050565b60006020820190508181036000830152610dc081610d84565b9050919050565b7f7461726765742069732072656163686564000000000000000000000000000000600082015250565b6000610dfd601183610c55565b9150610e0882610dc7565b602082019050919050565b60006020820190508181036000830152610e2c81610df0565b9050919050565b600081905092915050565b50565b6000610e4e600083610e33565b9150610e5982610e3e565b600082019050919050565b6000610e6f82610e41565b9150819050919050565b7f746172676574206973206e6f7420726561636865640000000000000000000000600082015250565b6000610eaf601583610c55565b9150610eba82610e79565b602082019050919050565b60006020820190508181036000830152610ede81610ea2565b9050919050565b7f53656e64206d6f72652045544800000000000000000000000000000000000000600082015250565b6000610f1b600d83610c55565b9150610f2682610ee5565b602082019050919050565b60006020820190508181036000830152610f4a81610f0e565b9050919050565b7f77696e646f7720697320636c6f73656400000000000000000000000000000000600082015250565b6000610f87601083610c55565b9150610f9282610f51565b602082019050919050565b60006020820190508181036000830152610fb681610f7a565b9050919050565b600069ffffffffffffffffffff82169050919050565b610fdc81610fbd565b8114610fe757600080fd5b50565b600081519050610ff981610fd3565b92915050565b61100881610b7f565b811461101357600080fd5b50565b60008151905061102581610fff565b92915050565b60008151905061103a81610bb3565b92915050565b600080600080600060a0868803121561105c5761105b610a17565b5b600061106a88828901610fea565b955050602061107b88828901611016565b945050604061108c8882890161102b565b935050606061109d8882890161102b565b92505060806110ae88828901610fea565b9150509295509295909350565b7f796f7520617265206e6f7420617574686f72697a656420746f2075736520746860008201527f69732066756e6374696f6e000000000000000000000000000000000000000000602082015250565b6000611117602b83610c55565b9150611122826110bb565b604082019050919050565b600060208201905081810360008301526111468161110a565b9050919050565b600061115882610aa7565b915061116383610aa7565b925082820261117181610aa7565b9150828204841483151761118857611187610cf8565b5b5092915050565b7f4e487b7100000000000000000000000000000000000000000000000000000000600052601260045260246000fd5b60006111c982610aa7565b91506111d483610aa7565b9250826111e4576111e361118f565b5b82820490509291505056fea2646970667358221220b2915596b855f2388f00cc58fbda36db02328638c5aa46e8a661fb96343139f964736f6c634300081c0033",
  "devdoc": {
    "kind": "dev",
    "methods": {},
    "version": 1
  },
  "userdoc": {
    "kind": "user",
    "methods": {},
    "version": 1
  },
  "storageLayout": {
    "storage": [
      {
        "astId": 52,
        "contract": "contracts/FundMe.sol:FundMe",
        "label": "dataFeed",
        "offset": 0,
        "slot": "0",
        "type": "t_contract(AggregatorV3Interface)45"
      },
      {
        "astId": 56,
        "contract": "contracts/FundMe.sol:FundMe",
        "label": "funderToAmount",
        "offset": 0,
        "slot": "1",
        "type": "t_mapping(t_address,t_uint256)"
      },
      {
        "astId": 63,
        "contract": "contracts/FundMe.sol:FundMe",
        "label": "MINIMUM_VALUE",
        "offset": 0,
        "slot": "2",
        "type": "t_uint256"
      },
      {
        "astId": 72,
        "contract": "contracts/FundMe.sol:FundMe",
        "label": "owner",
        "offset": 0,
        "slot": "3",
        "type": "t_address"
      },
      {
        "astId": 74,
        "contract": "contracts/FundMe.sol:FundMe",
        "label": "deploymentTimestamp",
        "offset": 0,
        "slot": "4",
        "type": "t_uint256"
      },
      {
        "astId": 76,
        "contract": "contracts/FundMe.sol:FundMe",
        "label": "lockTime",
        "offset": 0,
        "slot": "5",
        "type": "t_uint256"
      },
      {
        "astId": 78,
        "contract": "contracts/FundMe.sol:FundMe",
        "label": "erc20Addr",
        "offset": 0,
        "slot": "6",
        "type": "t_address"
      },
      {
        "astId": 81,
        "contract": "contracts/FundMe.sol:FundMe",
        "label": "getFundSuccess",
        "offset": 20,
        "slot": "6",
        "type": "t_bool"
      }
    ],
    "types": {
      "t_address": {
        "encoding": "inplace",
        "label": "address",
        "numberOfBytes": "20"
      },
      "t_bool": {
        "encoding": "inplace",
        "label": "bool",
        "numberOfBytes": "1"
      },
      "t_contract(AggregatorV3Interface)45": {
        "encoding": "inplace",
        "label": "contract AggregatorV3Interface",
        "numberOfBytes": "20"
      },
      "t_mapping(t_address,t_uint256)": {
        "encoding": "mapping",
        "key": "t_address",
        "label": "mapping(address => uint256)",
        "numberOfBytes": "32",
        "value": "t_uint256"
      },
      "t_uint256": {
        "encoding": "inplace",
        "label": "uint256",
        "numberOfBytes": "32"
      }
    }
  }
}